:100000000C9421050C9449050C9449050C9400109E
:100010000C94D30F0C94A60F0C9449050C9449052D
:100020000C9449050C9449050C9449050C94E7156A
:100030000C9449050C944B160C9449050C944905F5
:100040000C946F140C9449050C9462130C943C139B
:100050000C9449050C9449050C9449050C944905E8
:100060000C94B9140C944905700E8C0AB60AD60A81
:10007000E80A0B0B2E0B560BB30E950BB20BCB0BEA
:10008000EF0B130C350C950CD00C090D540DA40D71
:10009000D20DB30EB30EFA0D080E160E490EB30EA6
:1000A000B30EB30EB30EB30EB30E8C0AB60AD60A55
:1000B000E80A0B0B2E0B560BB30E950BB20BCB0BAA
:1000C000EF0B130C350C950CD00C090D540DA40D31
:1000D000D20DB30EB30EFA0D080E160E490E5D1DAD
:1000E000C41B081C341C761D701CB81CE41C181D95
:1000F00043757272656E74207A2044726976652049
:1001000053706565642073657420746F2000436FBD
:100110006D6D616E643A205A20486F6D652052659E
:10012000666572656E63652053657420546F2000A8
:1001300048656C6C6F20686F77206172652078006D
:1001400048656C6C6F20686F77206172652057007E
:10015000436F6D6D616E643A20566572626F7365B0
:10016000205465787420436F6D6D656E7473204400
:10017000656163746976617465642E00436F6D6DAB
:10018000616E643A20566572626F736520546578BB
:100190007420436F6D6D656E74732041637469766E
:1001A000617465642E00436F6D6D616E643A205317
:1001B000544F5000436F6D6D616E643A2052657309
:1001C000657420486F6D6520506F736974696F6E38
:1001D0007300436F6D6D616E643A20526573657490
:1001E00020466163746F72792044656661756C7432
:1001F0007300436F6D6D616E643A2042726F61648B
:100200006361737420496E74657276616C206973E2
:100210003A2000436F6D6D616E643A2042726F61E7
:10022000646361737420496E74657276616C2073C7
:10023000657420746F3A2000436F6D6D616E643A8F
:10024000205475726E696E672042726F61646361DB
:10025000737473204F464600436F6D6D616E643A50
:10026000205475726E696E672050726F6A65637490
:100270006F72204F4E00436F6D6D616E643A205473
:1002800075726E696E672050726F6A6563746F7203
:10029000204F4646004572726F723A205265736570
:1002A000742063757272656E74205A20706F736962
:1002B00074696F6E2076616C7565206F7574206F40
:1002C00066206C696D6974732E202049676E6F72A9
:1002D00065642E00436F6D6D616E643A20526573E4
:1002E000657474696E672063757272656E74205AE6
:1002F00020706F736974696F6E20746F3A200043C9
:100300006F6D6D616E643A2052656C656173652036
:10031000616E64206379636C6520746F204E65782C
:1003200074204C617965722061743A20004E4F54FC
:10033000453A20205265736574204E6578742043D9
:1003400075726520506F736974696F6E20746F20C9
:100350006C617374206375726520706F7369746962
:100360006F6E202B206C61737420696E6372656DF3
:10037000656E742E004552524F523A2020496E76D7
:10038000616C696420436F6D6D616E643A205265E3
:100390006C6561736520616E64206379636C6520B0
:1003A000746F204E657874204C6179657220617499
:1003B0003A2000436F6D6D616E643A204D616E7539
:1003C000616C20436F6E74726F6C7320446561635F
:1003D000746976617465642E00436F6D6D616E643F
:1003E0003A204D616E75616C20436F6E74726F6C54
:1003F00073204163746976617465642E00436F6D88
:100400006D616E643A204572726F722C2050657275
:1004100063656E74204C6F776572205370656564F8
:10042000204F7574206F662052616E676500436FC0
:100430006D6D616E643A2052504D204C6F7765723D
:100440002053706565642053657420546F20004309
:100450006F6D6D616E643A204572726F722C205020
:10046000657263656E7420526169736520537065AF
:100470006564204F7574206F662052616E67650059
:10048000436F6D6D616E643A2052504D2052616928
:1004900073652053706565642053657420546F2024
:1004A00000436F6D6D616E643A205265706F7369C1
:1004B00074696F6E204761702073657420746F3AA1
:1004C0002000436F6D6D616E643A204E61746976F1
:1004D000652059205265736F6C7574696F6E205377
:1004E000657420546F2000436F6D6D616E643A2017
:1004F000476F746F205A20706F736974696F6E2034
:1005000061743A2000436F6D6D616E643A205265EC
:100510006C6561736520616E64206D6F7665207413
:100520006F2066696E616C20706F736974696F6E9D
:100530002061743A2000436F6D6D616E643A205300
:100540006574746C652044656C61792073657420F2
:10055000746F2000436F6D6D616E643A2042726566
:10056000617468652044656C6179207365742074DA
:100570006F2000436F6D6D616E643A20205265718B
:10058000756573742043757272656E74205374615F
:1005900074757300436F6D6D616E643A20437963C7
:1005A0006C6520746F20696E697469616C204261AA
:1005B0007365204C617965722061743A2000436F45
:1005C0006D6D616E643A202041636B6E6F776C6570
:1005D00064676500446966666572656E6365206F71
:1005E000663A2020005265736574205A65726F2048
:1005F000746F3A202000466F756E64205A65726FE2
:100600002061743A20200050726F6A6563746F72C3
:1006100020436F6E74726F6C3A2020417661696C72
:1006200061626C650041310050726F6A6563746F7E
:10063000722773204E617469766520582052657365
:100640006F6C7574696F6E3A2000440050726F6A67
:100650006563746F722773204E61746976652059E3
:10066000205265736F6C7574696F6E3A2000450097
:100670004379636C652046696E69736865642E0012
:10068000460043616C696272617465642058592048
:10069000506978656C2053697A6520696E204D69D0
:1006A00063726F6E733A200048005072696E746511
:1006B0007220556E69743A20313030300049313043
:1006C0003030005368757474657220436F6E7472B5
:1006D0006F6C3A20417661696C61626C65004A31E9
:1006E00000457374696D6174656420686F75727319
:1006F000206265666F7265206C616D70206F757425
:1007000070757420697320312F32206F66206F72EC
:100710006967696E616C2076616C75653A20004B83
:10072000004D6178696D756D205A20696E205055B5
:100730003A20004D004E6565647320526573657400
:100740003A204E4F005230004E656564732052656A
:100750007365743A2059455300523100466F722038
:100760007570646174657320616E6420746F2064B9
:100770006F776E6C6F616420746865206C61737450
:100780006573742076657273696F6E2C2076697359
:10079000697420687474703A2F2F4E6570686F33D7
:1007A000642E636F6D00436F70797269676874209F
:1007B000323031382C2032303139204E6570686F3C
:1007C00033442C204C4C43004E6570686F334420FA
:1007D0004669726D776172652076657273696F6EB6
:1007E00020312E312E322072756E6E696E67206F49
:1007F0006E2061204E6570686F3344204D6F6465D4
:100800006C005742394331005631203120320052BA
:100810006573657420436F6D70656C6574652077D2
:10082000697468205A2044696666206F663A0058E9
:100830000043757272656E74205A20486F6D652092
:1008400056616C75653A00590043757272656E7435
:10085000205A20506F736974696F6E2069733A2053
:10086000005A0000000000240027002A00000000B9
:1008700000250028002B00040404040404040402DE
:10088000020202020203030303030301020408102D
:1008900020408001020408102001020408102052A8
:1008A000616973696E6720506C6174666F726D2048
:1008B000746F2066696E616C20706F736974696F04
:1008C0006E2E0052656C65617365640042726561ED
:1008D0007468652050617573652046696E69736838
:1008E00065642E20204F70656E696E6720536875B1
:1008F000747465722E005261697365642E202050F5
:10090000617573696E6720666F72206272656174CB
:1009100068652E2E2E0052616973696E6720506CD7
:100920006174666F726D20746F206E657874206CD0
:100930006179657220706F736974696F6E202B2006
:10094000636C656172616E6365204761702E005251
:10095000656C65617365642C205368757474657289
:1009600020436C6F73656400536574746C6520502C
:10097000617573652046696E69736865642E202011
:10098000526561647920746F204578706F73652EAD
:10099000004C6F77657265642E2020506175736915
:1009A0006E6720666F7220736574746C652E2E2ED0
:1009B000004C6F776572696E6720506C6174666F6A
:1009C000726D20746F206E657874206C6179657229
:1009D00020706F736974696F6E2E0053687574743C
:1009E0006572204F70656E0050726F6A6563746F38
:1009F00072206973204F6666005030005072696E35
:100A000074204379636C652041424F52542E20205C
:100A1000486F737420434F4D4D204C6F73740051D9
:100A200000000000080002010000030407000000AD
:100A30000000000000000000002300260029000044
:100A4000471811241FBECFEFD8E0DEBFCDBF11E0A5
:100A5000A0E0B1E0E2EBF2E402C005900D92AC330D
:100A6000B107D9F723E0ACE3B1E001C01D92AA3091
:100A7000B207E1F715E0C1E2D5E004C02197FE011D
:100A80000E94451FC032D107C9F70E94EE180C948E
:100A900057210C940000FF920F931F93CF93DF9385
:100AA000EC0180914001FF802D81909140014E81A9
:100AB00030914001309534232923932F922B8F2599
:100AC000F92EF822809140018F8308851985011540
:100AD0001105E1F0D80113968C919F2D982381F098
:100AE00090914001892391E009F490E090933F01B7
:100AF000F801848180933E010190F081E02D0995F9
:100B0000D80115960D911C911697E1CF9BB38C815E
:100B1000982349F09BB3892B8BBBE881F9818081B5
:100B200080934001BECFDF91CF911F910F91FF9035
:100B30000895AF92BF92CF92DF92EF92FF920F9300
:100B40001F93CF93DF93CDB7DEB7AC970FB6F89472
:100B5000DEBF0FBECDBF1982CE0101966C015C01D4
:100B6000E12CF12C00E010E088E292E00E947A1083
:100B700018161906CCF788E292E00E945810F50189
:100B80008083833431F410827801FFEFEF1AFF0A7B
:100B900025C0813419F1863409F18A3029F088237F
:100BA00019F00F311105D1F40C0D1D1DF801108243
:100BB000F2E0EF16F1040CF43FC06BE371E0CE01FC
:100BC00087960E9427136BE371E0CE0181960E9405
:100BD0002713EC0CFD1CA12CB12C12C00F5F1F4F72
:100BE0008FEFA81AB80AC0CFF70161917F01643571
:100BF00079F0A114B10451F4CE0187960E948212BB
:100C0000C7018C199D094F977CF30EC0662361F0D4
:100C1000F80180818A3041F05701AC18BD08F70116
:100C20006081CE018196EACFCE0181960E94B212F8
:100C3000CE0187960E94B212C6010E94241EAC9675
:100C40000FB6F894DEBF0FBECDBFDF91CF911F91DD
:100C50000F91FF90EF90DF90CF90BF90AF900895ED
:100C6000CF93DF93EC018091CF019091D0016C2F55
:100C7000892B91F486E00E94BD1360E084E00E941D
:100C8000BD1361E085E00E94BD1381E090E0909388
:100C9000D0018093CF011EC086E00E94BD1360E0AA
:100CA00084E00E94BD1360E085E00E94BD131092B5
:100CB000D0011092CF012091D9013091DA01219712
:100CC00019F42150310902C02F5F3F4F3093DA01F0
:100CD0002093D901DF91CF9108950F931F93CF9364
:100CE000DF932091BE012223A1F0EB018C0141E0B2
:100CF00050E067E371E088E292E00E942D10C801A5
:100D00000E94B017CE01DF91CF911F910F910C94EB
:100D1000D117DF91CF911F910F910895CF93DF935A
:100D2000EB010E94B017CE01DF91CF910C94D11747
:100D30000F931F93CF93DF9300D000D000D0CDB797
:100D4000DEB78C014AE0BC01CE0101960E94EF1291
:100D5000BE016F5F7F4F8FE298E00E948E06CE014A
:100D600001960E94B2124AE0B801CE0101960E949B
:100D7000EF12BE016F5F7F4F8FE098E00E946D061B
:100D8000CE0101960E94B21226960FB6F894DEBFED
:100D90000FBECDBFDF91CF911F910F910895CF93DB
:100DA000DF9300D000D000D0CDB7DEB76BE371E0A9
:100DB000CE0101960E942713BE016F5F7F4F88E02E
:100DC00098E00E948E06CE0101960E94B2126BE35B
:100DD00071E0CE0101960E942713BE016F5F7F4F25
:100DE00082E098E00E948E06CE0101960E94B21227
:100DF0006BE371E0CE0101960E942713BE016F5F85
:100E00007F4F88EC97E00E946D06CE0101960E940C
:100E1000B2126BE371E0CE0101960E942713BE016E
:100E20006F5F7F4F86EA97E00E946D06CE010196C4
:100E30000E94B2126BE371E0CE0101960E9427136B
:100E4000BE016F5F7F4F8CE597E00E946D06CE017B
:100E500001960E94B21226960FB6F894DEBF0FBE1E
:100E6000CDBFDF91CF910895CF93DF9300D000D015
:100E700000D0CDB7DEB78091D5016BE371E0882358
:100E8000D9F0CE0101960E942713BE016F5F7F4FFC
:100E900085E497E00E948E06CE0101960E94B21270
:100EA0006BE371E0CE0101960E942713BE016F5FD4
:100EB0007F4F85E397E01AC0CE0101960E94271369
:100EC000BE016F5F7F4F89E597E00E948E06CE01DD
:100ED00001960E94B2126BE371E0CE0101960E946E
:100EE0002713BE016F5F7F4F88E497E00E946D0675
:100EF000CE0101960E94B21226960FB6F894DEBF7C
:100F00000FBECDBFDF91CF910895CF93DF9300D077
:100F100000D000D0CDB7DEB74AE060E07DE7CE017B
:100F200001960E94EF12BE016F5F7F4F83E397E04F
:100F30000E948E06CE0101960E94B2124AE060E045
:100F40007DE7CE0101960E94EF12BE016F5F7F4FD9
:100F500081E297E00E946D06CE0101960E94B212D6
:100F600026960FB6F894DEBF0FBECDBFDF91CF91AE
:100F70000895CF93DF9300D000D000D0CDB7DEB777
:100F800060910001709101014AE0CE0101960E943A
:100F9000EF12BE016F5F7F4F8FE197E00E948E06D8
:100FA000CE0101960E94B212609100017091010180
:100FB0004AE0CE0101960E94EF12BE016F5F7F4FA3
:100FC00081EE96E00E946D06CE0101960E94B2125B
:100FD00026960FB6F894DEBF0FBECDBFDF91CF913E
:100FE0000895CF93DF9300D000D000D0CDB7DEB707
:100FF0006BE371E0CE0101960E942713BE016F5F83
:101000007F4F8EED96E00E948E06CE0101960E94E3
:10101000B2126BE371E0CE0101960E942713BE016C
:101020006F5F7F4F83EC96E00E946D06CE010196C4
:101030000E94B21226960FB6F894DEBF0FBECDBF47
:10104000DF91CF910895CF93DF9300D000D000D0EF
:10105000CDB7DEB76BE371E0CE0101960E94271396
:10106000BE016F5F7F4F8DEB96E00E948E06CE0132
:1010700001960E94B2126BE371E0CE0101960E94CC
:101080002713BE016F5F7F4F8AEA96E00E946D06CC
:10109000CE0101960E94B21226960FB6F894DEBFDA
:1010A0000FBECDBFDF91CF910895CF93DF9300D0D6
:1010B00000D000D0CDB7DEB76091B8017091B90112
:1010C0004AE0CE0101960E94EF12BE016F5F7F4F92
:1010D00088EA96E00E948E06CE0101960E94B21226
:1010E0006091B8017091B9014AE0CE0101960E9469
:1010F000EF12BE016F5F7F4F82E896E00E946D069F
:10110000CE0101960E94B21226960FB6F894DEBF69
:101110000FBECDBFDF91CF910895CF93DF9300D065
:1011200000D000D0CDB7DEB76BE371E0CE01019601
:101130000E942713BE016F5F7F4F80E896E00E94F8
:101140008E06CE0101960E94B2126BE371E0CE01D1
:1011500001960E942713BE016F5F7F4F80E796E0E4
:101160000E946D06CE0101960E94B21226960FB61D
:10117000F894DEBF0FBECDBFDF91CF910895CF931E
:10118000DF9300D000D000D0CDB7DEB76091BA01B8
:101190007091BB014AE0CE0101960E94EF12BE01A0
:1011A0006F5F7F4F8EE696E00E948E06CE0101961D
:1011B0000E94B2126091BA017091BB014AE0CE0167
:1011C00001960E94EF12BE016F5F7F4F8CE496E0A4
:1011D0000E946D06CE0101960E94B21226960FB6AD
:1011E000F894DEBF0FBECDBFDF91CF910895CF93AE
:1011F000DF9300D000D000D0CDB7DEB76091BC0146
:101200007091BD014AE0CE0101960E94EF12BE012D
:101210006F5F7F4F8AE496E00E948E06CE010196B2
:101220000E94B2126091BC017091BD014AE0CE01F2
:1012300001960E94EF12BE016F5F7F4F88E296E039
:101240000E946D06CE0101960E94B21226960FB63C
:10125000F894DEBF0FBECDBFDF91CF910895CF933D
:10126000DF9300D000D000D0CDB7DEB76BE371E0E4
:10127000CE0101960E942713BE016F5F7F4F85E26A
:1012800096E00E948E06CE0101960E94B2126BE398
:1012900071E0CE0101960E942713BE016F5F7F4F60
:1012A00087E096E00E946D06CE0101960E94B21280
:1012B00026960FB6F894DEBF0FBECDBFDF91CF915B
:1012C0000895CF93DF9300D0CDB7DEB780E790E0ED
:1012D0009A838983BE016F5F7F4F80E090E00E9418
:1012E000881662E071E082E090E00E9488166CEB64
:1012F00071E084E090E00E9488166AEB71E086E07D
:1013000090E00E94881668EB71E088E090E00E940F
:10131000881660E071E08AE090E00E9488160F90E5
:101320000F90DF91CF91089561E084E00E94BD139A
:1013300060E086E00E94BD1360E085E00E94BD137E
:101340001092D0011092CF0108952091D9013091CF
:10135000DA018091D7019091D801821793073CF46C
:1013600060E084E00E94BD1381E090E009C028178E
:10137000390744F460E084E00E94BD1380E090E00F
:101380000C94300628173907D1F480910E01909102
:101390000F01892BA1F468E070E080E090E00E94EA
:1013A00029140E94940965E070E080E090E00E94BA
:1013B000291482E090E090930F0180930E0108952C
:1013C0009C01990F440B550B60EF79E482E090E0AB
:1013D0000E94CD1EBA01A901E3E0440F551F661F0C
:1013E000771FEA95D1F74115510581E0680771052E
:1013F00040F481E08093C1015093C0014093BF014C
:101400004DC04115510588E06807710568F482E018
:101410008093C101DB01CA0153E0B695A79597956A
:1014200087955A95D1F736C04115510580E4680774
:10143000710568F483E08093C101DB01CA0146E0D5
:10144000B695A795979587954A95D1F723C04115ED
:101450005105610581E0780740F484E08093C10183
:10146000BB27A72F962F852F15C085E08093C1013C
:1014700041155105610584E0780750F4DB01CA018C
:101480002AE0B695A795979587952A95D1F702C03A
:101490008FEF9FEF9093C0018093BF018091BF01B8
:1014A0009091C00190938700809386008091C10144
:1014B0008061809381000895EF92FF920F931F93B4
:1014C000CF93DF9300D000D000D0CDB7DEB70E941D
:1014D00063146093D8027093D9028093DA029093D8
:1014E000DB0288E292E00E947A10892B09F43BC467
:1014F00088E292E00E945810082E000C990BAA0B6B
:10150000BB0BFC01E054F109EB33F10508F02BC4EF
:10151000EC5CFF4F0C94451F6BE371E0CE0101962C
:101520000E942713BE016F5F7F4F8EEB95E00E94F4
:101530006D06CE0101960E94B2120E94CF060E9453
:101540002F090E94F1070E9423080E94B9070E94F8
:1015500085070E9434070E941E170E94E6160E940B
:10156000F7080E94BF080E945508FDC310921001A1
:101570001092D4011092D3010E9499059093CE014C
:101580008093CD014AE0BC01CE0101960E94EF128A
:10159000BE016F5F7F4F84E995E00E946D06CE012A
:1015A00001960E94B21281E090E07BC06BE371E093
:1015B000CE0101960E942713BE016F5F7F4F83E724
:1015C00095E00E946D06CE0101960E94B212D9C12B
:1015D0000E94990597FD0CC0092E000CAA0BBB0BAD
:1015E0008093C2019093C301A093C401B093C5013D
:1015F0004091C2015091C3016091C4017091C50135
:101600002AE0CE0101960E94B712BE016F5F7F4FA4
:1016100084E595E05EC30E94990597FD0CC0092EF4
:10162000000CAA0BBB0B8093C9019093CA01A09335
:10163000CB01B093CC014091C9015091CA01609196
:10164000CB017091CC012AE0CE0101960E94B71225
:10165000BE016F5F7F4F86E395E03BC310921001A0
:101660008091CD019091CE019093D4018093D301CC
:101670000E9499059093CE018093CD014AE0BC0170
:10168000CE0101960E94EF12BE016F5F7F4F85E091
:1016900095E00E946D06CE0101960E94B21288E08C
:1016A00090E09093D2018093D1015DC380910601B7
:1016B000909107010E94E0090E9499058C01809198
:1016C000CF019091D001019739F461E070E080E0A2
:1016D00090E00E942914F3CF01302DE712071CF08F
:1016E00080E09DE70BC00C304EEF14072CF01093F8
:1016F000D8010093D70106C08CE09EEF9093D801EB
:101700008093D70110920F0110920E016091D701C2
:101710007091D8014AE0CE0101960E94EF12BE01FD
:101720006F5F7F4F87EE94E0D4C20E94990597FDCA
:101730000AC09093BB018093BA016AEB71E086E026
:1017400090E00E9488166091BA017091BB014AE056
:10175000CE0101960E94EF12BE016F5F7F4F82ECB7
:1017600094E0B7C20E9499058D3D25E0920720F4D0
:101770009093C7018093C6016091C6017091C70123
:101780004AE0CE0101960E94EF12BE016F5F7F4FCB
:1017900081EA94E09EC20E9499059C012150310982
:1017A0002C32314080F490930901809308014AE083
:1017B000BC01CE0101960E94EF12BE016F5F7F4F08
:1017C00080E894E086C26BE371E0CE0101960E944E
:1017D0002713BE016F5F7F4F8FE494E07AC20E94AF
:1017E00099059C01225031092B32314080F49093AD
:1017F0000B0180930A014AE0BC01CE0101960E94D0
:10180000EF12BE016F5F7F4F8EE294E062C26BE326
:1018100071E0CE0101960E942713BE016F5F7F4FDA
:101820008DEF93E056C20E949905181619067CF4B4
:1018300081E0809310016BE371E0CE0101960E947C
:101840002713BE016F5F7F4F89ED93E042C2109274
:1018500010016BE371E0CE0101960E942713BE01D7
:101860006F5F7F4F83EB93E034C2109210010091C1
:10187000CD011091CE01E090D301F090D4011093EE
:10188000D4010093D3010E9499059093CE018093D7
:10189000CD012091D3013091D4018217930774F5C3
:1018A0004AE0BC01CE0101960E94EF12BE016F5FBB
:1018B0007F4F85E793E00E946D06CE0101960E945E
:1018C000B2126BE371E0CE0101960E942713BE01B4
:1018D0006F5F7F4F8DE293E00E946D06CE0101960F
:1018E0000E94B2120E191F098091D3019091D40168
:1018F000080F191F1093CE010093CD016091CD0107
:101900007091CE014AE0CE0101960E94EF12BE0115
:101910006F5F7F4F8FEF92E00E946D06CE010196C0
:101920000E94B21285E090E0BCCE0E9499058C0125
:1019300088519C4F893E904838F54AE0B801CE0165
:1019400001960E94EF12BE016F5F7F4F84ED92E01F
:101950000E946D06CE0101960E94B2121093DA0128
:101960000093D9011093D8010093D7011093D401AB
:101970000093D3011093CE010093CD0181E08093B9
:10198000D5010E94E616EFC16BE371E0CE0101962E
:101990000E942713BE016F5F7F4F85E992E099C1D6
:1019A0000E9499050097E9F46BE371E0CE0101967E
:1019B0000E942713BE016F5F7F4F86E792E00E946F
:1019C0006D06CE0101960E94B2121092C80180E00D
:1019D0000E94CD1681E090E09093DC018093DB01C2
:1019E000C2C1019709F0BFC16BE371E0CE0101965E
:1019F0000E942713BE016F5F7F4F88E592E00E942F
:101A00006D06CE0101960E94B21281E08093C8015A
:101A1000A8C10E9499050097B1F46BE371E0CE0173
:101A200001960E942713BE016F5F7F4F88E392E00B
:101A30000E946D06CE0101960E94B21210920D0115
:101A400010920C0190C1883E43E09407F4F090930B
:101A50000D0180930C014AE0BC01CE0101960E9469
:101A6000EF12BE016F5F7F4F83E192E00E946D062F
:101A7000CE0101960E94B2121092D4021092D502A9
:101A80001092D6021092D7026EC160910C01709133
:101A90000D014AE0CE0101960E94EF12BE016F5F78
:101AA0007F4F82EF91E015C10E9499056BE371E0D1
:101AB0008336910581F5CE0101960E942713BE0160
:101AC0006F5F7F4F82ED91E00E946D06CE0101961F
:101AD0000E94B21284E398E0909303018093020184
:101AE00080E094E09093BD018093BC0180E093E09E
:101AF0009093BB018093BA0184E690E09093B90182
:101B00008093B80180ED97E09093010180930001EC
:101B10000E94610928C1CE0101960E942713BE01CF
:101B20006F5F7F4F84EB91E00E946D06CE010196BE
:101B30000E94B21281E08093D6011092D2011092DD
:101B4000D101809310010FC16BE371E0CE010196CA
:101B50000E942713BE016F5F7F4F86EA91E00E94CB
:101B60006D06CE0101960E94B2121092D20110921F
:101B7000D10181E0809310018091CF019091D0013B
:101B8000019739F461E070E080E090E00E94291450
:101B9000F3CF8091D9019091DA019093D80180938D
:101BA000D701E1C00E949905181619067CF481E05E
:101BB0008093BE016BE371E0CE0101960E94271372
:101BC000BE016F5F7F4F8CE791E083C06BE371E0F4
:101BD000CE0101960E942713BE016F5F7F4F80E503
:101BE00091E00E946D06CE0101960E94B212109201
:101BF000BE01B9C00E9499056BE371E0CE01019668
:101C00000E942713BE016F5F7F4F80E491E061C0A7
:101C10000E9499056BE371E0CE0101960E942713A3
:101C2000BE016F5F7F4F80E391E053C00E94990532
:101C3000209102013091030118161906DCF4AC0161
:101C4000421B530B2091D9013091DA01240F351F2B
:101C50003093DA012093D9013093D8012093D70132
:101C6000909303018093020162E071E082E090E0D2
:101C70000E94881660910201709103014AE0CE0132
:101C800001960E94EF12BE016F5F7F4F8EE091E0E0
:101C900020C00E9499059C01215031092C3231400D
:101CA00020F49093070180930601809106019091A2
:101CB00007010E94E00960910601709107014AE066
:101CC000CE0101960E94EF12BE016F5F7F4F80EF41
:101CD00090E00E946D06CE0101960E94B21243C0B0
:101CE0000E9499058F3F910509F0E8F5009741F0B2
:101CF0002091D302022E000C330B8217930751F46C
:101D000021E0892B09F420E02093C801822F0E9452
:101D1000CD1629C09FEF9093D1029093D202809567
:101D20008093D30281E0809304028AE180932602AB
:101D300010920502109227026BEC85EC92E00E9453
:101D4000F611E091C502F091C6020280F381E02D08
:101D500043E050E061ED72E085EC92E009950E946D
:101D6000EA170E94721626960FB6F894DEBF0FBED1
:101D7000CDBFDF91CF911F910F91FF90EF9008950C
:101D80001F93CF93DF9300D000D000D0CDB7DEB744
:101D9000182F88EC90E00E94E00988E00E949413DC
:101DA000892BE9F188E00E949413892B69F08091D6
:101DB000D9019091DA0101962091D7013091D80193
:101DC0002817390709F0AEC088E00E949413892BC8
:101DD00049F761E070E080E090E00E9429142091D2
:101DE000D7013091D8018091D9019091DA0128175B
:101DF000390779F781E02DC02091D9013091DA01BE
:101E0000215031098091D7019091D8018217930711
:101E100009F08DC088E00E949413892B31F488E08A
:101E20000E949413892BB1F7E7CF61E070E080E066
:101E300090E00E9429148091D9019091DA0160917B
:101E4000D7017091D8016817790779F7111104C08B
:101E500080E00E94C00E70C04AE0CE0101960E9450
:101E6000EF12BE016F5F7F4F86EF95E00E946D0617
:101E7000CE0101960E94B21260910201709103019D
:101E80004AE0CE0101960E94EF12BE016F5F7F4FC4
:101E900085EE95E00E946D06CE0101960E94B21279
:101EA0006091D9017091DA01809102019091030152
:101EB000681B790B4AE0CE0101960E94EF12BE0129
:101EC0006F5F7F4F84ED95E00E946D06CE01019615
:101ED0000E94B2128091D501882359F08091D901D6
:101EE0009091DA012091020130910301821B930B42
:101EF00002C080E090E00E949806809102019091DB
:101F000003019093DA018093D9019093D8018093D3
:101F1000D70180910601909107010E94E0090E947B
:101F200094090AC09093D8018093D7014DCF309384
:101F3000D8012093D7016ECF26960FB6F894DEBF56
:101F40000FBECDBFDF91CF911F9108951F920F92C9
:101F50000FB60F9211242F933F934F935F936F937C
:101F60007F938F939F93AF93BF93EF93FF93E091F2
:101F7000DC02F091DD028081809340018CED92E0E3
:101F80000E944B05FF91EF91BF91AF919F918F916F
:101F90007F916F915F914F913F912F910F900FBE65
:101FA0000F901F9018951F920F920FB60F92112449
:101FB0002F933F934F935F936F937F938F939F9351
:101FC000AF93BF93EF93FF93E091E602F091E702A6
:101FD00080818093400186EE92E00E944B05FF9144
:101FE000EF91BF91AF919F918F917F916F915F9191
:101FF0004F913F912F910F900FBE0F901F9018950A
:102000001F920F920FB60F9211242F933F934F936D
:102010005F936F937F938F939F93AF93BF93EF9350
:10202000FF93E091F002F091F102808180934001F2
:1020300080EF92E00E944B05FF91EF91BF91AF912D
:102040009F918F917F916F915F914F913F912F91D0
:102050000F900FBE0F901F901895CF92DF92EF92C6
:10206000FF920F931F93CF93DF936C017A018B0143
:10207000C0E0D0E0CE15DF0589F0D8016D918D016B
:10208000D601ED91FC910190F081E02DC6010995FA
:10209000892B11F47E0102C02196ECCFC701DF919C
:1020A000CF911F910F91FF90EF90DF90CF90089507
:1020B000FC01918D828D981761F0828DDF01A80F50
:1020C000B11D5D968C91928D9F5F9F73928F90E072
:1020D00008958FEF9FEF0895FC01918D828D9817E1
:1020E00031F0828DE80FF11D858D90E008958FEF1E
:1020F0009FEF0895FC01918D228D892F90E0805CE7
:102100009F4F821B91098F739927089588E292E06F
:102110000E947A1021E0892B09F420E0822F089593
:10212000FC01848DDF01A80FB11DA35ABF4F2C9174
:10213000848D90E001968F739927848FA689B78943
:102140002C93A089B1898C9180648C93938D848D1C
:10215000981306C00288F389E02D80818F7D8083EB
:102160000895EF92FF920F931F93CF93DF93EC01AB
:1021700081E0888F9B8D8C8D981305C0E889F98943
:10218000808185FD24C0F62E0B8D10E00F5F1F4F60
:102190000F731127E02E8C8DE8120CC00FB607FCD0
:1021A000FACFE889F989808185FFF5CFCE010E94B9
:1021B0009010F1CF8B8DFE01E80FF11DE35AFF4F18
:1021C000F0820B8FEA89FB898081806207C0EE89EB
:1021D000FF896083E889F98980818064808381E058
:1021E00090E0DF91CF911F910F91FF90EF900895B4
:1021F000CF93DF93EC01888D8823C9F0EA89FB89AE
:10220000808185FD05C0A889B9898C9186FD0FC0A4
:102210000FB607FCF5CF808185FFF2CFA889B98979
:102220008C9185FFEDCFCE010E949010E7CFDF911A
:10223000CF9108950E94861081110C945C0A089534
:10224000833081F028F4813099F08230A1F0089534
:102250008730A9F08830B9F08430D1F480918000C3
:102260008F7D03C0809180008F77809380000895D8
:1022700084B58F7702C084B58F7D84BD0895809129
:10228000B0008F7703C08091B0008F7D8093B00045
:1022900008953FB7F8948091B2019091B301A09155
:1022A000B401B091B50126B5A89B05C02F3F19F028
:1022B0000196A11DB11D3FBFBA2FA92F982F8827C6
:1022C000820F911DA11DB11DBC01CD0142E0660F21
:1022D000771F881F991F4A95D1F7089585ED809340
:1022E000BC008091BC0084FDFCCF109203020895D5
:1022F00040918801262F30E0240F311D2132310515
:10230000DCF4209103022430C9F4FC0180E090E069
:10231000861758F4309188012191DC01AA59BE4FEB
:10232000A30FB11D2C930196F3CF80918801680F04
:102330006093880180E0089581E0089582E0089527
:10234000089581E090E03091B7012091B6013217F5
:1023500010F480E090E09195819591090895809125
:10236000B7019091B601891730F48F5F8093B70160
:1023700080E090E008958FEF9FEF08958091B6017F
:1023800090E02091B701821B91090895CF92DF92CE
:10239000EF92FF920F931F93CF93DF937C01262F31
:1023A000972F8A0180910402882391F0C62FD72F9E
:1023B0006E01C40ED51ECC15DD0571F06991D701F3
:1023C000ED91FC910190F081E02DC7010995F3CFCB
:1023D000642F822F0E947811C801DF91CF911F9145
:1023E0000F91FF90EF90DF90CF900895CF93DF9300
:1023F0001F92CDB7DEB76983209104022223D1F06A
:1024000020912702203240F021E030E0FC013383AC
:10241000228380E090E015C080910502E82FF0E073
:10242000EA5FFD4F998190838F5F809305028093CF
:10243000270205C061E0CE0101960E94781181E07B
:1024400090E00F90DF91CF91089508950E9442216E
:102450000F931F93CF93DF93EC01888199810097AD
:1024600029F02A813B812617370788F48B016F5F9B
:102470007F4F0E947820009761F0998388831B83A7
:102480000A832C813D81232B11F4FC01108281E011
:1024900001C080E0DF91CF911F910F910895CF93FC
:1024A000DF93EC0188819981009711F00E94E01F71
:1024B000198218821D821C821B821A82DF91CF91A1
:1024C0000895EF92FF920F931F93CF93DF93EC0148
:1024D0007B018A01BA010E942812811104C0CE0139
:1024E0000E944F1207C01D830C83B7018881998118
:1024F0000E945021CE01DF91CF911F910F91FF904B
:10250000EF900895EF92FF920F931F93CF93DF9375
:1025100000D0CDB7DEB78C0169831A82FC01E4805C
:10252000F580FFEFEF1AFF0AB7010E9428128823F7
:1025300081F0F8012081318184819581BE016F5F36
:102540007F4F820F931F0E945021F801F582E48291
:1025500081E00F900F90DF91CF911F910F91FF902D
:10256000EF900895FC01808191810C94E01FEF921F
:10257000FF920F931F93CF93DF93CDB7DEB7A19751
:102580000FB6F894DEBF0FBECDBF8C01CB01BA01F0
:10259000F80111821082138212821582148230E0B7
:1025A000AE014F5F5F4F7A010E94601EF7010190FC
:1025B0000020E9F73197AF014E195F09B701C80153
:1025C0000E946112A1960FB6F894DEBF0FBECDBF78
:1025D000DF91CF911F910F91FF90EF900895EF92AF
:1025E000FF920F931F93CF93DF93CDB7DEB7629720
:1025F0000FB6F894DEBF0FBECDBF8C01CB01F80142
:1026000011821082138212821582148250E09E0180
:102610002F5F3F4F7901B9010E94421EF7010190DF
:102620000020E9F73197AF014E195F09B701C801E2
:102630000E94611262960FB6F894DEBF0FBECDBF46
:10264000DF91CF911F910F91FF90EF900895FC01C2
:102650001182108213821282158214826115710513
:1026600051F0FB0101900020E9F73197AF01461BC3
:10267000570B0C94611208951F920F920FB60F9290
:1026800011242F933F934F935F936F937F938F9377
:102690009F93AF93BF93EF93FF9388E292E00E94E2
:1026A0009010FF91EF91BF91AF919F918F917F918A
:1026B0006F915F914F913F912F910F900FBE0F90AF
:1026C0001F9018951F920F920FB60F9211242F93FF
:1026D0008F939F93EF93FF93E0913802F09139022B
:1026E0008081E0913E02F0913F0282FD12C0908114
:1026F000809141028F5F8F7320914202821751F0C7
:10270000E0914102F0E0E85DFD4F958F809341023A
:1027100001C08081FF91EF919F918F912F910F9038
:102720000FBE0F901F901895CF93DF93282F30E0A6
:10273000F901EF5DF54F8491F901E557F74FD49119
:10274000F901E958F74FC491CC2391F081110E940F
:102750002011EC2FF0E0EE0FFF1FEB5CF54FA59181
:10276000B491EC91ED2381E090E021F480E002C08F
:1027700080E090E0DF91CF9108951F93CF93DF9396
:10278000282F30E0F901EF5DF54F8491F901E5570D
:10279000F74FD491F901E958F74FC491CC23C9F010
:1027A000162F81110E942011EC2FF0E0EE0FFF1F79
:1027B000E359F74FA591B4918FB7F894111105C063
:1027C0009C91ED2FE095E92302C0EC91ED2BEC9369
:1027D0008FBFDF91CF911F910895CF93DF9390E04A
:1027E000FC01E557F74F2491FC01E958F74F84911C
:1027F000882361F190E0880F991FFC01ED59F74F94
:10280000C591D491FC01E359F74FA591B4916111A1
:1028100009C09FB7F8948881209582238883EC9122
:102820002E230BC0623061F49FB7F8943881822F59
:10283000809583238883EC912E2B2C939FBF06C019
:102840008FB7F894E8812E2B28838FBFDF91CF912B
:1028500008958F929F92AF92BF92CF92DF92EF92A4
:10286000FF926B017C010E9449114B015C01C11474
:10287000D104E104F104F1F00E944911DC01CB0123
:1028800088199909AA09BB09883E9340A105B10599
:1028900070F321E0C21AD108E108F10888EE880E31
:1028A00083E0981EA11CB11CC114D104E104F10401
:1028B00019F7DDCFFF90EF90DF90CF90BF90AF90F2
:1028C0009F908F9008952FB7F8946091AE0170910A
:1028D000AF018091B0019091B1012FBF08951F9277
:1028E0000F920FB60F9211242F933F938F939F93C4
:1028F000AF93BF938091AE019091AF01A091B001D1
:10290000B091B1013091AD0123E0230F2D3720F4B8
:102910000196A11DB11D05C026E8230F0296A11D39
:10292000B11D2093AD018093AE019093AF01A093B0
:10293000B001B093B1018091B2019091B301A09127
:10294000B401B091B5010196A11DB11D8093B201F2
:102950009093B301A093B401B093B501BF91AF912F
:102960009F918F913F912F910F900FBE0F901F90CD
:1029700018951F920F920FB60F9211242F933F9329
:102980004F935F936F937F938F939F93AF93BF9377
:10299000EF93FF938091B900887F803609F49CC043
:1029A00068F5883209F45BC090F4803109F454C0B2
:1029B00038F4882309F4F6C0883009F44DC0F6C015
:1029C000883109F44CC0803209F45DC0EFC0803416
:1029D00009F468C048F4803309F455C0883309F01D
:1029E000E5C080930102D8C0803509F44FC0883516
:1029F00009F45DC0883409F0D9C0D6C0883909F41B
:102A0000C7C0A8F4883709F467C038F4883609F4D9
:102A100063C0803709F460C0C9C0883809F4B8C001
:102A2000803909F45FC0803809F0C0C05BC0803BCA
:102A300009F486C038F4803A09F466C0883A09F48B
:102A40007FC0B4C0803C09F4A7C0883C09F4A4C08E
:102A5000883B09F48AC0AAC08091DE0110C0909121
:102A600000028091FF01981770F5E091000281E06B
:102A70008E0F80930002F0E0E152FE4F8081809340
:102A8000BB0085EC86C0809301028EC0E0910002FD
:102A900081E08E0F809300028091BB00F0E0E15254
:102AA000FE4F8083909100028091FF016EC0E09103
:102AB000000281E08E0F809300028091BB00F0E065
:102AC000E152FE4F80838091020281116DC081E04E
:102AD0008093DD0184EA61C083E080930302109259
:102AE000AC01CFCF8091AC01803208F051C0E091B1
:102AF000AC0181E08E0F8093AC018091BB00F0E0CF
:102B0000E457FE4F8083BDCF85EC8093BC001092CC
:102B100003028091AC01803230F4E091AC01F0E02E
:102B2000E457FE4F10826091AC0170E0E0918A01A1
:102B3000F0918B018CE891E009951092AC0136C0C0
:102B400084E0809303021092890110928801E09141
:102B50008601F0918701099580918801811105C056
:102B600081E08093880110926601E091890181E003
:102B70008E0F80938901F0E0EA59FE4F80818093A7
:102B8000BB009091890180918801981708F479CF52
:102B900085E88093BC000AC085EC8093BC0010924D
:102BA000030204C0109201020E946E11FF91EF9186
:102BB000BF91AF919F918F917F916F915F914F9155
:102BC0003F912F910F900FBE0F901F9018951F925D
:102BD0000F920FB60F9211242F933F938F939F93D1
:102BE000EF93FF938091650187FF05C010928500E8
:102BF0001092840005C08091650187FD8091650178
:102C0000809165018F5F809365018091650187FFE9
:102C100020C0809165018C30E4F4209184003091D3
:102C2000850080916501082E000C990BFC01EE0FC8
:102C3000FF1F8E0F9F1FFC01EF5BFE4F8181928172
:102C4000820F931F90938900809388008091650183
:102C500017C08091840090918500049680349C492F
:102C600018F480E49CE905C080918400909185006F
:102C7000049690938900809388008FEF809365017C
:102C8000FF91EF919F918F913F912F910F900FBEE8
:102C90000F901F9018951F920F920FB60F9211244C
:102CA0002F933F934F935F936F937F938F939F9354
:102CB000AF93BF93EF93FF93E0910401F09105016F
:102CC0000995FF91EF91BF91AF919F918F917F9166
:102CD0006F915F914F913F912F910F900FBE0F9089
:102CE0001F90189581E0809304028AE18093260268
:102CF000109205021092270260E985EC92E00E9492
:102D0000F61164E085EC92E00E94F6110C94EA174B
:102D1000CF92DF92EF92FF920F931F93CF93DF93A7
:102D20001F92CDB7DEB78C016B017B0182E0E80E0C
:102D3000F11CCE14DF0481F0F60161916F01C8012E
:102D400069830E94B71E6981681719F0C8010E9443
:102D5000BF1E0F5F1F4FEDCF82E090E00F90DF911D
:102D6000CF911F910F91FF90EF90DF90CF9008953A
:102D70000F931F93CF93DF938C01EB010E94B71E3B
:102D80008883C80101960E94B71E898382E090E083
:102D9000DF91CF911F910F91089581110C947216BC
:102DA00081E0809304028AE180932602109205025A
:102DB0001092270260E985EC92E00E94F61160E033
:102DC00085EC92E00E94F6110C94EA17CF93DF9302
:102DD00000D000D000D0CDB7DEB76091D90170919E
:102DE000DA014AE0CE0101960E94EF12BE016F5F48
:102DF0007F4F81E698E00E948E06CE0101960E94E8
:102E0000B2126091D9017091DA014AE0CE010196C7
:102E10000E94EF12BE016F5F7F4F89E498E00E942D
:102E20006D06CE0101960E94B21226960FB6F89456
:102E3000DEBF0FBECDBFDF91CF910895CF93DF935B
:102E400000D000D000D0CDB7DEB760910201709104
:102E500003014AE0CE0101960E94EF12BE016F5FAE
:102E60007F4F87E498E00E948E06CE0101960E9473
:102E7000B21260910201709103014AE0CE01019605
:102E80000E94EF12BE016F5F7F4F81E398E00E94C6
:102E90006D06CE0101960E94B21226960FB6F894E6
:102EA000DEBF0FBECDBFDF91CF910895CF93DF93EB
:102EB000EC0161E08BE00E94ED13209711F460E0DB
:102EC00004C0CF3FD10531F461E08BE0DF91CF91B9
:102ED0000C94BD13ECE2FAE0E491E330F9F048F42D
:102EE000E130B9F0E230A1F584B5806284BDC8BD9F
:102EF00034C0E730E9F0E83019F1E43049F5809169
:102F00008000806280938000D0938B00C0938A0001
:102F100024C084B5806884BDC7BD1FC08091800077
:102F2000806880938000D0938900C093880015C08A
:102F30008091B00080688093B000C093B3000DC052
:102F40008091B00080628093B000C093B40005C04F
:102F5000C038D1050CF0B8CFB2CFDF91CF91089532
:102F60000F931F93CF93DF938C01C0E0D0E0F80163
:102F7000EC0FFD1F6491662371F0E0912802F0913F
:102F800029020190F081E02D88E292E00995892BD9
:102F900011F02196ECCFCE01DF91CF911F910F91CF
:102FA0000895CF93DF93FC01448155816081718145
:102FB00088E292E00E942D10EC0142E050E069E3CB
:102FC00071E088E292E00E942D108C0F9D1FDF912E
:102FD000CF9108952091270290912602213208F086
:102FE0004AC0809103028111FCCF32E0309303028A
:102FF00031E0309302023FEF309301021092000261
:103000002093FF01A6E0B2E04FED51E0FA013E2F20
:10301000341B321718F43D913193F9CF1092DE0131
:103020002091DE01990F922B9093DE019091DD01AA
:10303000913061F41092DD019091DE019093BB001C
:103040009091BC0093FDF8CF95EC01C095EE909364
:10305000BC00909103029230E1F3909101029F3FF6
:1030600079F080910102803241F080910102803339
:1030700031F084E005C081E003C082E001C083E05C
:103080001092050210922702109204020895E8E2BD
:10309000F2E01382128288EE93E0A0E0B0E0848335
:1030A0009583A683B7832BE131E03183208325EC20
:1030B00030E03587248724EC30E03787268720EC02
:1030C00030E0318B208B21EC30E0338B228B22ECF3
:1030D00030E0358B248B26EC30E0378B268B118E3D
:1030E000128E138E148EE5ECF2E01382128284832A
:1030F0009583A683B7838BE291E091838083E9E394
:10310000FAE085919491E0EFF2E0918380838BE681
:1031100090E09383828381E08483158216821186F6
:103120001086EBE3FAE085919491E6EEF2E091836C
:1031300080838CE690E09383828382E0848315828F
:10314000168211861086EDE3FAE085919491ECEDFC
:10315000F2E0918380838DE690E09383828384E024
:10316000848315821682118610860E9463146093F0
:1031700002037093030380930403909305030E945A
:1031800063146093FE027093FF0280930003909398
:1031900001030E9463146093FA027093FB02809310
:1031A000FC029093FD020E9463146093D802709316
:1031B000D9028093DA029093DB020E946314609339
:1031C000D4027093D5028093D6029093D702E1ED9A
:1031D000F2E08FEF8083818382830895CF93DF9322
:1031E000CDB7DEB72A970FB6F894DEBF0FBECDBFBE
:1031F000789484B5826084BD84B5816084BD85B5D2
:10320000826085BD85B5816085BD80916E008160DD
:1032100080936E0010928100809181008260809383
:103220008100809181008160809381008091800085
:103230008160809380008091B10084608093B100B0
:103240008091B00081608093B00080917A008460AA
:1032500080937A0080917A00826080937A008091D6
:103260007A00816080937A0080917A0080688093F0
:103270007A001092C10062E08EE00E94ED1362E0DD
:103280008FE00E94ED1362E088E00E94ED1361E0A0
:1032900084E00E94ED1361E085E00E94ED1361E09F
:1032A00086E00E94ED1361E08BE00E94ED13E09157
:1032B0003802F091390202E00083E0913402F0918B
:1032C00035021082E0913602F091370280E1F82E4B
:1032D000F08210924002E0913C02F0913D0286E0C3
:1032E0008083E0913A02F0913B028081806180838B
:1032F000E0913A02F0913B02808188608083E09106
:103300003A02F0913B02808180688083E0913A022A
:10331000F0913B0280818F7D808362E370E080E0EA
:1033200090E00E9429141092B7011092B6011092F9
:103330000502109227021092030211E0109302027C
:103340001092DD0161E082E10E94BD1361E083E142
:103350000E94BD138091B9008E7F8093B900809147
:10336000B9008D7F8093B90088E48093B80085E42C
:103370008093BC00109304028AE18093260210928D
:103380000502109227026BEC85EC92E00E94F61188
:10339000E091C502F091C6020280F381E02D43E086
:1033A00050E061ED72E085EC92E009950E94EA1729
:1033B00062E370E080E090E00E9429148091C801EF
:1033C0000E94CD160E9463146093D8027093D902B4
:1033D0008093DA029093DB0220910601309107017D
:1033E000032E000C440B550B60EF79E482E090E073
:1033F0000E94CD1EF092810010928000BA01A901B6
:1034000093E0440F551F661F771F9A95D1F741151A
:10341000510521E06207710538F41093C101509302
:10342000C0014093BF014CC04115510538E063070E
:10343000710560F40093C101DB01CA0113E0B69588
:10344000A795979587951A95D1F736C041155105DF
:1034500080E46807710568F483E08093C101DB01B3
:10346000CA01F6E0B695A79597958795FA95D1F795
:1034700023C041155105610591E0790740F484E0CE
:103480008093C101BB27A72F962F852F15C085E0FC
:103490008093C10141155105610524E0720750F484
:1034A000DB01CA015AE0B695A795979587955A957D
:1034B000D1F702C08FEF9FEF9093C0018093BF01BF
:1034C0008091BF019091C001909387008093860006
:1034D0008091C10180618093810085EA99E0909399
:1034E00005018093040181E080936F0080910601C3
:1034F000909107010E94E0090E949409BE016F5F4C
:103500007F4F80E090E00E94B81684E398E09093AB
:1035100003018093020180E094E09093BD018093C9
:10352000BC0180E093E09093BB018093BA0184E6F4
:1035300090E09093B9018093B80180ED97E090936B
:1035400001018093000189819A81845691090C9729
:10355000F0F462E071E082E090E00E94B8166CEB5B
:1035600071E084E090E00E94B8166AEB71E086E0BA
:1035700090E00E94B81668EB71E088E090E00E944D
:10358000B81660E071E08AE090E00E94B816809181
:10359000BC019091BD01811594403CF08091BA012D
:1035A0009091BB018115934014F584E398E09093CA
:1035B00003018093020180E094E09093BD01809329
:1035C000BC0180E093E09093BB018093BA0184E654
:1035D00090E09093B9018093B80180ED97E09093CB
:1035E0000101809300018FEF9FEF9A838983898186
:1035F0009A818037910519F00E9461091EC062E02E
:1036000071E082E090E00E94B8166CEB71E084E01B
:1036100090E00E94B8166AEB71E086E090E00E94AC
:10362000B81668EB71E088E090E00E94B81660E0A0
:1036300071E08AE090E00E94B8160E94CF061092D6
:10364000BE010E942F090E9423080E94F1070E94D8
:10365000B9070E9485070E9434070E941E170E9426
:10366000E6160E94F7080E94BF080E94550801E074
:1036700010E05524539422E0E22EF12C37E0632E23
:10368000712C43E0842E912C8091DB019091DC0120
:10369000892B31F522242394312CC1010E94561725
:1036A00065E070E080E090E00E9429145FEF251A49
:1036B000350A8FEF2816310481F722242A94312C01
:1036C000C1010E94561765E070E080E090E00E9422
:1036D000291491E0291A310821E02216310481F7DA
:1036E0008FEF90E00E945617809110018823E9F037
:1036F0008EE00E949413892B31F48091D90190912E
:10370000DA0101970AC08FE00E949413892B69F4B3
:103710008091D9019091DA0101969093D80180931C
:10372000D70110920F0110920E0180910E0190911D
:103730000F01029731F410930F0100930E010E94C4
:10374000E6168091D601882399F01092D501109247
:10375000D60180E00E94C00E5092D5011092D40193
:103760001092D301F0920F01E0920E010E943407F3
:10377000E091D101F091D201E930F10508F0B6C134
:10378000E159FF4F0C94451F6BE371E0CE010196A8
:103790000E942713BE016F5F7F4F8BED99E00E945F
:1037A0006D06CE0101960E94B2122091D90130918E
:1037B000DA018091CD019091CE012817390719F1D6
:1037C0006BE371E0CE0101960E942713BE016F5F8B
:1037D0007F4F81EB99E00E946D06CE0101960E9419
:1037E000B2128091CD019091CE019093D801809337
:1037F000D70180910A0190910B010E94E00910927B
:103800000F0110920E01F092D201E092D1016EC12F
:103810002091D9013091DA018091D7019091D8019E
:103820002817390709F062C16BE371E0CE010196F8
:103830000E942713BE016F5F7F4F81E999E00E94CC
:103840006D06CE0101960E94B2120E94631460932D
:10385000FA027093FB028093FC029093FD02909217
:10386000D2018092D10142C10E9463142091FA02D8
:103870003091FB024091FC025091FD02DC01CB0132
:10388000821B930BA40BB50B2091C9013091CA0187
:103890004091CB015091CC01281739074A075B07AB
:1038A00008F024C16BE371E0CE0101960E9427135A
:1038B000BE016F5F7F4F88E699E00E946D06CE01E2
:1038C00001960E94B2120E948D0844E050E050938D
:1038D000D2014093D1015092C8010E94721606C1D4
:1038E0006BE371E0CE0101960E942713BE016F5F6A
:1038F0007F4F8FE499E00E946D06CE0101960E94F1
:10390000B2126BE371E0CE0101960E942713BE0153
:103910006F5F7F4F86E199E00E946D06CE010196B0
:103920000E94B2122091CD013091CE018091C6014A
:103930009091C701820F931F97FD05C09093D80106
:103940008093D70104C01092D8011092D7018091C2
:103950000801909109010E94E00910920F01109254
:103960000E0186E090E09093D2018093D1019FC038
:103970002091D9013091DA018091D7019091D8013D
:103980002817390709F0B2C06BE371E0CE01019648
:103990000E942713BE016F5F7F4F86EF98E00E9461
:1039A0006D06CE0101960E94B2120E9463146093CC
:1039B000FE027093FF0280930003909301037092C4
:1039C000D2016092D10192C00E9463142091FE0244
:1039D0003091FF024091000350910103DC01CB01C3
:1039E000821B930BA40BB50B2091C2013091C30134
:1039F0004091C4015091C501281739074A075B0758
:103A000008F074C06BE371E0CE0101960E942713A9
:103A1000BE016F5F7F4F8CEC98E00E946D06CE0177
:103A200001960E94B2121093D2010093D1015EC0A0
:103A30006BE371E0CE0101960E942713BE016F5F18
:103A40007F4F83EC98E00E946D06CE0101960E94A4
:103A5000B2126BE371E0CE0101960E942713BE0102
:103A60006F5F7F4F8FE998E00E946D06CE0101964F
:103A70000E94B2128091CD019091CE012091D90186
:103A80003091DA012817390724F49093D8018093F4
:103A9000D70180910801909109010E94E0091092DC
:103AA0000F0110920E011092D2011092D1011092CA
:103AB000C80180E00E94CD1619C02091D901309133
:103AC000DA018091D7019091D8012817390771F454
:103AD0008091100181110AC050921001809106015D
:103AE000909107010E94E0090E948D0820900C012E
:103AF00030900D011214130424F50E946314A09059
:103B0000D402B090D502C090D602D090D7029B01CB
:103B1000AC012A193B094C095D09C101330CAA0B00
:103B2000BB0B82179307A407B50770F00AC08091FA
:103B3000D9019091DA019093D8018093D7015092E6
:103B400010010E941A11A0CD0E9463146093D40248
:103B50007093D5028093D6029093D7026BE371E005
:103B6000CE0101960E942713BE016F5F7F4F89EF40
:103B700099E00E948E06CE0101960E94B2126BE37C
:103B800071E0CE0101960E942713BE016F5F7F4F47
:103B900088EE99E00E946D06CE0101960E94B21255
:103BA0008091D1019091D201892B59F20E94631426
:103BB0002091D8023091D9024091DA025091DB0273
:103BC000DC01CB01821B930BA40BB50B8138994A06
:103BD000A340B10508F4B5CF6BE371E0CE010196C7
:103BE0000E942713BE016F5F7F4F8FE19AE00E9412
:103BF0008E06CE0101960E94B2126BE371E0CE01F7
:103C000001960E942713BE016F5F7F4F8CEF99E0F2
:103C10000E946D06CE0101960E94B2121092D2014E
:103C20001092D10168EE73E080E090E00E942914C8
:103C30008091CF019091D001019709F078CF61E098
:103C400070E080E090E0F2CFFC0188279927E894AB
:103C500021912032E9F3293010F02E30C8F32B32B5
:103C600041F02D3239F4689404C00E94581E820F2E
:103C7000911D219120532A30C0F31EF49095819517
:103C80009F4F08954532510520F4423010F00C94B6
:103C90004D1EFB011082CB010895BB274A3031F441
:103CA000992322F4BDE2909581959F4F0C948E1E2E
:103CB0007AE0979F902D879F802D910D1124089574
:103CC0002532310520F4223010F00C946B1EFA01DD
:103CD0001082CA010895BB27FA01A62F6217710549
:103CE00081059105330B30FB66F0AA27660F771F1D
:103CF000881F991FAA1FA21710F0A21B63953850A6
:103D0000A9F7A05DAA3308F0A95DA19336F7B11118
:103D1000B1931082CA010C94A71EBB27FB01552743
:103D2000AA27880F991FAA1FA41710F0A41B839518
:103D30005051B9F7A05DAA3308F0A95DA19300978F
:103D400079F7B111B1931192CB010C94A71EDC014C
:103D5000FC01672F71917723E1F7329704C07C91C2
:103D60006D9370836291AE17BF07C8F30895F999F8
:103D7000FECF92BD81BDF89A992780B50895262F70
:103D8000F999FECF1FBA92BD81BD20BD0FB6F89440
:103D9000FA9AF99A0FBE01960895052E97FB1EF424
:103DA00000940E94E41E57FD07D00E94231F07FCC9
:103DB00003D04EF40C94E41E509540953095219517
:103DC0003F4F4F4F5F4F0895909580957095619547
:103DD0007F4F8F4F9F4F08952F923F924F925F9248
:103DE0006F927F928F929F92AF92BF92CF92DF920B
:103DF000EF92FF920F931F93CF93DF93CDB7DEB770
:103E0000CA1BDB0B0FB6F894DEBF0FBECDBF099403
:103E10002A88398848885F846E847D848C849B845A
:103E2000AA84B984C884DF80EE80FD800C811B8168
:103E3000AA81B981CE0FD11D0FB6F894DEBF0FBE97
:103E4000CDBFED010895A1E21A2EAA1BBB1BFD01F7
:103E50000DC0AA1FBB1FEE1FFF1FA217B307E40769
:103E6000F50720F0A21BB30BE40BF50B661F771FC1
:103E7000881F991F1A9469F76095709580959095A1
:103E80009B01AC01BD01CF010895EE0FFF1F05900E
:103E9000F491E02D0994CF93DF938230910510F4D3
:103EA00082E090E0E0910803F091090320E030E027
:103EB000C0E0D0E0309711F1408151814817590797
:103EC000C0F04817590761F482819381209719F057
:103ED0009B838A832BC0909309038093080326C099
:103EE0002115310519F04217530718F49A01BE0144
:103EF000DF01EF010280F381E02DDCCF21153105D8
:103F000009F1281B390B2430310590F412968D915C
:103F10009C9113976115710521F0FB0193838283B6
:103F200004C09093090380930803FD01329644C0B6
:103F3000FD01E20FF31F81939193225031092D93DC
:103F40003C933AC02091060330910703232B41F4A0
:103F5000209113013091140130930703209306033D
:103F600020911101309112012115310541F42DB735
:103F70003EB74091150150911601241B350BE0917D
:103F80000603F0910703E217F307A0F42E1B3F0B83
:103F90002817390778F0AC014E5F5F4F24173507BB
:103FA00048F04E0F5F1F5093070340930603819321
:103FB000919302C0E0E0F0E0CF01DF91CF9108954E
:103FC0000F931F93CF93DF93009709F48CC0FC01EC
:103FD0003297138212820091080310910903011590
:103FE000110581F420813181820F931F20910603F6
:103FF000309107032817390779F5F0930703E09309
:10400000060371C0D80140E050E0AE17BF0750F47E
:1040100012962D913C911397AD012115310509F1AF
:10402000D901F3CF9D01DA0133832283608171814D
:10403000860F971F8217930769F4EC012881398155
:10404000260F371F2E5F3F4F318320838A819B814C
:1040500093838283452B29F4F0930903E0930803AB
:1040600042C01396FC93EE931297ED01499159913A
:104070009E01240F351FE217F30771F480819181AF
:10408000840F951F029611969C938E938281938143
:1040900013969C938E931297E0E0F0E0D80112966D
:1040A0008D919C911397009719F0F8018C01F6CF30
:1040B0008D919C9198012E5F3F4F820F931F20910D
:1040C0000603309107032817390769F4309729F45C
:1040D000109209031092080302C0138212821093F7
:1040E000070300930603DF91CF911F910F9108956D
:1040F000A0E0B0E0EEE7F0E20C94F01EEC010097D7
:1041000021F4CB010E944B1FB8C0FC01E60FF71F42
:104110009C0122503109E217F30708F4ACC0D90121
:104120000D911C91119706171707B0F00530110576
:1041300008F49FC0C80104978617970708F499C030
:1041400002501109061B170B019311936D937C9379
:10415000CF010E94E01F8DC05B01A01AB10A4C0183
:10416000800E911EA0910803B091090340E050E039
:10417000E12CF12C109709F44AC0A815B905D1F526
:104180006D907C901197630182E0C80ED11CCA1417
:10419000DB0480F1A3014A195B096A0182E0C80EC1
:1041A000D11C1296BC9012971396AC91B5E0CB1629
:1041B000D10440F0B282A38351834083D9016D932F
:1041C0007C930AC00E5F1F4FC301800F911FF9013E
:1041D00091838083EB2DFA2FE114F10431F0D701A4
:1041E0001396FC93EE93129744C0F0930903E09367
:1041F00008033FC08D919C9111974817590708F407
:10420000AC017D0112960D90BC91A02DB3CF809191
:1042100006039091070388159905E1F4461757079F
:10422000C8F48091110190911201009741F48DB76B
:104230009EB74091150150911601841B950BE8170C
:10424000F907C8F4F0930703E0930603F9017183BB
:1042500060830FC0CB010E944B1F7C01009759F077
:10426000A801BE010E944721CE010E94E01FC701A4
:1042700004C0CE0102C080E090E0CDB7DEB7EEE032
:104280000C940C1F81E090E0F8940C945721FB01F2
:10429000DC0102C001900D9241505040D8F70895C2
:1042A000FB01DC0101900D920020E1F70895F894E4
:0242B000FFCF3E
:1042B200D007FFFF25122C0178007800E8030100E7
:1042C2000100000A03800000000000B1102D107AE6
:1042D2001058106C10F81000000000F611C611BE44
:0C42E20011AF11A111A01143000D0A0042
:00000001FF
